:020000040800F2
:1000000000200020DD010008E5010008E9010008EA
:1000100000000000000000000000000000000000E0
:1000200000000000000000000000000005020008C1
:100030000000000000000000090200089904000808
:100040001502000815020008150200081502000834
:100050001502000815020008150200081502000824
:100060001502000815020008150200081502000814
:100070001502000815020008150200081502000804
:10008000150200089907000800000000150200088A
:1000900015020008150200081502000815020008E4
:1000A00015020008150200081502000815020008D4
:1000B0001502000800000000150200080000000002
:1000C0005FF808F130B583B000F0C4F8314B324A24
:1000D0001360324A1360324B324A03E011681960F0
:1000E0000433043230498B42F8D32B4B1A682F4B20
:1000F0009A4204D1294B1A682D4B9A4200D0FEE750
:10010000244B2C4A13602C4A13602C4B02E0002233
:100110001A6004332A4A9342F9D3264B1B68002BFA
:1001200003D1254B1B68002B00D0FEE700F096F8AA
:10013000694601A800F086F8224C234B1C1BA41032
:10014000002504E0AA001F4BD35898470135AC4264
:10015000F8DC1E4C1E4B1C1BA410002504E0AA005A
:100160001A4BD35898470135AC42F8DC00990198F6
:1001700000F01EFA0500174C174B1C1BA41004E0DE
:10018000013CA200134BD3589847002CF8DC280000
:1001900000F056F8BABADECA0000002020000020A5
:1001A000000000208809000824000020785634123E
:1001B00032547698240000203C00002024000020C7
:1001C00040000020400200084002000840020008F1
:1001D00040020008400200084002000810B5FFF786
:1001E00071FFC04600BEFEE704207146084202D0FF
:1001F000EFF3098001E0EFF308807146044A1047ED
:1002000000BEFEE700BEFEE700BEFEE7704700004E
:080210000102000800BEFEE738
:100218008809000800000020240000208809000840
:100228000000000000000000240000204000002022
:080238000000000000000000BE
:10024000FEE7C04601230360014B0B607047C046C8
:100250000400002010B500F05DF810BD10B500F0EE
:100260008BF810BD82B0002301930093264A1368D7
:10027000802149020B431360234B1A6880239B02A1
:1002800013400093019B01330193009B002B04D189
:10029000019AA023DB019A42EED11B4B1B689B0302
:1002A00002D50123009301E000230093009B012B62
:1002B00028D11122154B1A60134B5A685A605A689C
:1002C0005A605968124A0A405A605A68882149039C
:1002D0000A435A601A68802149040A431A600A4B8B
:1002E0001B689B01FBD5084B5A6803218A435A605F
:1002F000596802220A435A60034B5B680C22134080
:10030000082BF9D102B070470010024000200240D3
:10031000FF7FC0FF10B5124B1A6801210A431A6013
:100320005868104A02405A6018680F4A02401A6022
:1003300018680E4A02401A6058680D4A02405A6016
:10034000DA6A0F208243DA62186B0A4A02401A63A3
:100350005A6B8A435A6300229A60FFF783FF10BDED
:10036000001002400CB8FF08FFFFF6FEFFFFFBFF86
:10037000FFFFC0FFACFEFFFF10B51F4B5B680C22F8
:100380001340042B07D0082B09D0002B23D11B4A84
:100390001B4B1A6022E0194A194B1A601EE0164BDB
:1003A0005C685A68A40C0F2004400234C0235B022E
:1003B0001A4204D113484443114B1C600EE00E4B0B
:1003C000DB6A0F21194001310C4800F011FA444357
:1003D0000B4B1C6002E0094A094B1A60064B5B6834
:1003E0001B090F221340084AD35CDBB2044A116890
:1003F000D940116010BDC0460010024000127A00C2
:100400001C00002000093D000C00002010B5134B1B
:100410001868FA21890000F0EBF90138104B984276
:100420000DD8104A506010490B6A1B021B0AC020ED
:10043000000603430B6200239360073313600A4AEC
:10044000136A1B021B0A8021C9050B431362002398
:10045000064A1360064A136010BDC0461C00002007
:10046000FFFFFF0010E000E000ED00E030000020A2
:100470002C000020044B186000E030BF024B1B68CA
:10048000002BFAD17047C04630000020014B1860A5
:100490007047C0462C00002010B5074B1B68002B8E
:1004A00003D0054A1368013B1360044B1B68002B03
:1004B00000D0984710BDC046300000202C0000201E
:1004C00010B5194A13685B0013609023DB051B8A83
:1004D000DB0703D5116801230B431360124B1A6825
:1004E000124B9A421DD1124B1B78012B0ED0002BC0
:1004F00008D0022B02D0032B0CD00EE000220C4BB4
:100500001A700AE001220A4B1A7006E00322084B17
:100510001A7002E00222064B1A70054B187800F0A0
:1005200035F900F01DF910BD34000020FFFFFF7FFA
:10053000380000200D4A5369802109030B435361A1
:100540000B4B1A68A021C9020A431A609988094A0C
:10055000114099809868084908409860D86801401F
:10056000D960998A0A409A827047C04600100240BA
:1005700000080048FFFCFFFFFFFFF0FF0A4A536935
:10058000802189020B4353619022D2051368032115
:100590008B431360054B9A688A439A60D96802229C
:1005A0000A43DA607047C046001002400008004865
:1005B00010B500220E4B1A600E4C02232370FFF779
:1005C00025FFFFF7B7FFFFF7D9FF0B48FFF75EFFE7
:1005D00000F0B4F8207800F0D9F8084A918A802316
:1005E0009B004B4093828020FFF744FFF5E7C04615
:1005F0003400002038000020C10400080008004832
:10060000214B5A69802189020A435A619021C90508
:1006100008680C2202430A609A69802189000A4313
:100620009A611A4BDA68F939FF398A43DA60D96876
:1006300010220A43DA60DA68802189010A43DA600D
:100640001A69920092081A61996A02220A439A6210
:100650009A6801218A439A609A68802109060A43B0
:100660009A600A4B9B68002BFBDB084A91680123C8
:100670000B439360054B1B68DB07FBD5034A91686E
:1006800004230B4393607047001002400024014094
:10069000124B5A69802189020A435A619021C90587
:1006A0000A68C020800002430A60DA698021890557
:1006B0000A43DA610A4B19680A4A0A401A601A6842
:1006C000E021C9000A431A601A6804218A431A60AB
:1006D000196801220A431A607047C04600100240A0
:1006E00000740040FFF0FFFF0F4AD16910230B4355
:1006F000D3610E4B0E4ADA62998901220A4392B203
:100700009A81198881220A4392B21A80094A802369
:100710009B021360C42189005058074B034080207E
:100720000002034353507047001002400010004085
:10073000B80B000000E100E0FF00FFFF10B5002251
:10074000054B1A700232054B1A70FFF759FFFFF77D
:100750009FFFFFF7C9FF10BD390000203A000020BD
:10076000064B1B6CFF221340054A53431B12054ADC
:1007700094466344044AD3627047C0460024014053
:10078000CA080000EE02000000100040014B187083
:100790007047C0463A0000200F4A13780133DBB29D
:1007A00013701F2B02D900220B4B1A700B4B1B78B6
:1007B000094A12785B010A49CB189A5C094B1A6105
:1007C000094A918A80235B004B409382074A138A2F
:1007D00001218B4313827047390000203A0000202A
:1007E000080900080074004000080048001000409C
:1007F000002243088B4274D303098B425FD3030A60
:100800008B4244D3030B8B4228D3030C8B420DD372
:10081000FF22090212BA030C8B4202D31212090200
:1008200065D0030B8B4219D300E0090AC30B8B423E
:1008300001D3CB03C01A5241830B8B4201D38B03EC
:10084000C01A5241430B8B4201D34B03C01A524191
:10085000030B8B4201D30B03C01A5241C30A8B42D4
:1008600001D3CB02C01A5241830A8B4201D38B02BF
:10087000C01A5241430A8B4201D34B02C01A524163
:10088000030A8B4201D30B02C01A5241CDD2C309D5
:100890008B4201D3CB01C01A524183098B4201D351
:1008A0008B01C01A524143098B4201D34B01C01A3C
:1008B000524103098B4201D30B01C01A5241C308B4
:1008C0008B4201D3CB00C01A524183088B4201D323
:1008D0008B00C01A524143088B4201D34B00C01A0F
:1008E0005241411A00D20146524110467047FFE77B
:1008F00001B5002000F006F802BDC0460029F7D07F
:1009000076E770477047C0467F97AFC5D8E8F4FBDD
:10091000FEFBF4E8D8C5AF977F664E38251509026F
:100920000002091525384E66000F1F2F3F4F5F6FDD
:100930007F8E9EAEBECEDEEEFEEEDECEBEAE9E8ED6
:100940007F6F5F4F3F2F1F0FFEFEFEFEFEFEFEFE7F
:10095000FEFEFEFEFEFEFEFE0000000000000000A7
:10096000000000000000000000070F171F272F37AE
:100970003F474F575F676F777F868E969EA6AEB6CE
:08098000BEC6CED6DEE6EEF69F
:100988007856341228000020000000000000000003
:10099800000000000102030406070809006CDC02DD
:0409A80032547698B7
:04000005080000C52A
:00000001FF
