:020000040800F2
:1000000000200020DD010008E5010008E9010008EA
:1000100000000000000000000000000000000000E0
:1000200000000000000000000000000005020008C1
:100030000000000000000000090200089904000808
:100040001502000815020008150200081502000834
:100050001502000815020008150200081502000824
:100060001502000815020008150200081502000814
:100070001502000815020008150200081502000804
:1000800015020008A508000800000000150200087D
:1000900015020008150200081502000815020008E4
:1000A00015020008150200081502000815020008D4
:1000B0001502000800000000150200080000000002
:1000C0005FF808F130B583B000F0C4F8314B324A24
:1000D0001360324A1360324B324A03E011681960F0
:1000E0000433043230498B42F8D32B4B1A682F4B20
:1000F0009A4204D1294B1A682D4B9A4200D0FEE750
:10010000244B2C4A13602C4A13602C4B02E0002233
:100110001A6004332A4A9342F9D3264B1B68002BFA
:1001200003D1254B1B68002B00D0FEE700F096F8AA
:10013000694601A800F086F8224C234B1C1BA41032
:10014000002504E0AA001F4BD35898470135AC4264
:10015000F8DC1E4C1E4B1C1BA410002504E0AA005A
:100160001A4BD35898470135AC42F8DC00990198F6
:1001700000F016FA0500174C174B1C1BA41004E0E6
:10018000013CA200134BD3589847002CF8DC280000
:1001900000F056F8BABADECA0000002024000020A1
:1001A00000000020F80900082800002078563412CA
:1001B00032547698280000204C00002028000020AF
:1001C00050000020400200084002000840020008E1
:1001D00040020008400200084002000810B5FFF786
:1001E00071FFC04600BEFEE704207146084202D0FF
:1001F000EFF3098001E0EFF308807146044A1047ED
:1002000000BEFEE700BEFEE700BEFEE7704700004E
:080210000102000800BEFEE738
:10021800F80900080000002028000020F80900085C
:10022800000000000000000028000020500000200E
:080238000000000000000000BE
:10024000FEE7C04601230360014B0B607047C046C8
:100250000400002010B500F05DF810BD10B500F0EE
:100260008BF810BD82B0002301930093264A1368D7
:10027000802149020B431360234B1A6880239B02A1
:1002800013400093019B01330193009B002B04D189
:10029000019AA023DB019A42EED11B4B1B689B0302
:1002A00002D50123009301E000230093009B012B62
:1002B00028D11122154B1A60134B5A685A605A689C
:1002C0005A605968124A0A405A605A68882149039C
:1002D0000A435A601A68802149040A431A600A4B8B
:1002E0001B689B01FBD5084B5A6803218A435A605F
:1002F000596802220A435A60034B5B680C22134080
:10030000082BF9D102B070470010024000200240D3
:10031000FF7FC0FF10B5124B1A6801210A431A6013
:100320005868104A02405A6018680F4A02401A6022
:1003300018680E4A02401A6058680D4A02405A6016
:10034000DA6A0F208243DA62186B0A4A02401A63A3
:100350005A6B8A435A6300229A60FFF783FF10BDED
:10036000001002400CB8FF08FFFFF6FEFFFFFBFF86
:10037000FFFFC0FFACFEFFFF10B51F4B5B680C22F8
:100380001340042B07D0082B09D0002B23D11B4A84
:100390001B4B1A6022E0194A194B1A601EE0164BDB
:1003A0005C685A68A40C0F2004400234C0235B022E
:1003B0001A4204D113484443114B1C600EE00E4B0B
:1003C000DB6A0F21194001310C4800F089FA4443DF
:1003D0000B4B1C6002E0094A094B1A60064B5B6834
:1003E0001B090F221340084AD35CDBB2044A116890
:1003F000D940116010BDC0460010024000127A00C2
:100400001C00002000093D000C00002010B5134B1B
:100410001868FA21890000F063FA0138104B9842FD
:100420000DD8104A506010490B6A1B021B0AC020ED
:10043000000603430B6200239360073313600A4AEC
:10044000136A1B021B0A8021C9050B431362002398
:10045000064A1360064A136010BDC0461C00002007
:10046000FFFFFF0010E000E000ED00E0380000209A
:1004700034000020044B186000E030BF024B1B68C2
:10048000002BFAD17047C04638000020014B18609D
:100490007047C0463400002010B5074B1B68002B86
:1004A00003D0054A1368013B1360044B1B68002B03
:1004B00000D0984710BDC04638000020340000200E
:1004C000154A13685B0013609023DB051B8ADB076A
:1004D00003D5116801230B4313600F4B1A680F4BB0
:1004E0009A4218D10E4B1B881BB2322B08D0502BCE
:1004F00002D0002B0CD107E03222094B1A800AE00F
:100500005122074B1A8006E05022054B1A8002E068
:100510000022034B1A80704740000020FFFFFF7F3E
:100520003E0000200D4A5369802109030B435361AB
:100530000B4B1A68A021C9020A431A609988094A1C
:10054000114099809868084908409860D86801402F
:10055000D960998A0A409A827047C04600100240CA
:1005600000080048FFFCFFFFFFFFF0FF0A4A536945
:10057000802189020B4353619022D2051368032125
:100580008B431360054B9A688A439A60D9680222AC
:100590000A43DA607047C046001002400008004875
:1005A00010B500220D4B1A60FFF730FFFFF7BAFFBE
:1005B000FFF7DCFF0A48FFF769FF00F00BF9094A73
:1005C000918A80239B004B4093828023DB055A6AEB
:1005D000054B1A608020FFF74DFFF0E74000002038
:1005E000C10400080008004830000020214B5A696F
:1005F0008021C9020A435A611F4A116804208143BD
:10060000116010680821014311605A698021890234
:100610000A435A619022D2051168A020C00001430C
:100620001160908A1021014389B29182918A202021
:1006300081439182DA69802149000A43DA610F4BD4
:100640000020188018831884198B68220A4392B2FC
:100650001A83198C0122114389B219840121198549
:100660009621C900D962586319880A4392B21A8048
:100670007047C046001002400004004800200040BF
:1006800010B564280CD8074A918A80239B000B433D
:100690009382054CE36A5843642100F021F96063BA
:1006A00010BDC046000800480020004023494B69A7
:1006B0008022120313434B61214A1368A0200002D9
:1006C00003431360CA6902231343CB611D4B00220D
:1006D0001A831A841A811A80188B0222FF3202436D
:1006E0001A8318890322024392B21A81164ADA62E7
:1006F000164A5A6218880122104380B21880C869CD
:1007000010230343CB61124B5F2119851149D96234
:100710009989114389B2998119880A4392B21A8042
:100720000D4A80239B021360C421890050580B4B53
:1007300003408020000203435350704700100240E2
:100740000008004800040040FFFF0000FF7F000099
:10075000001000403E49000000E100E0FF00FFFF04
:100760001A4B5A69802189020A435A619021C905AE
:1007700008680C2202430A609A69802189000A43B2
:100780009A61134B0021D960DA688020800102430E
:10079000DA60986A022202439A6299609A6880211C
:1007A00009060A439A600A4B9B68002BFBDB084A48
:1007B000916801230B439360054B1B68DB07FBD556
:1007C000034A916804230B43936070470010024072
:1007D0000024014010B5FFF709FFFFF767FFFFF79F
:1007E000BFFF10BD10B5254B1B88254A12885B0042
:1007F0009B1A9BB2234A1380128823490888234BF3
:100800001B785343C3189BB20B800B881BB2C822C2
:100810001201934201DD0A8007E01B4B1B881BB2CB
:100820001B4A934201DA184B1A80164B1A88164B52
:100830001888184B1B785343C3181BB2DA171F20B4
:100840001040C3185B1198B203B2642B02DC002B7A
:1008500003DA01E0642000E00020C4B22000FFF7CA
:100860000FFF0D4B1C700D4B1B685B0704D50B4B2A
:100870001B6CDBB20A4A137010BDC0463E0000205C
:100880003C000020480000204600002021000020FD
:1008900080F3FFFF200000204A00002000240140D8
:1008A0004400002010B5094A536A09498C46634444
:1008B0009BB208490B80084B5362FFF793FF074A2E
:1008C000138A01218B43138210BDC04600040040EF
:1008D0000180FFFF3C000020FF7F0000001000406F
:1008E000002243088B4274D303098B425FD3030A6F
:1008F0008B4244D3030B8B4228D3030C8B420DD382
:10090000FF22090212BA030C8B4202D3121209020F
:1009100065D0030B8B4219D300E0090AC30B8B424D
:1009200001D3CB03C01A5241830B8B4201D38B03FB
:10093000C01A5241430B8B4201D34B03C01A5241A0
:10094000030B8B4201D30B03C01A5241C30A8B42E3
:1009500001D3CB02C01A5241830A8B4201D38B02CE
:10096000C01A5241430A8B4201D34B02C01A524172
:10097000030A8B4201D30B02C01A5241CDD2C309E4
:100980008B4201D3CB01C01A524183098B4201D360
:100990008B01C01A524143098B4201D34B01C01A4B
:1009A000524103098B4201D30B01C01A5241C308C3
:1009B0008B4201D3CB00C01A524183088B4201D332
:1009C0008B00C01A524143088B4201D34B00C01A1E
:1009D0005241411A00D20146524110467047FFE78A
:1009E00001B5002000F006F802BDC0460029F7D08E
:0809F00076E770477047C0462E
:1009F800785634122C00002000000000000000008F
:100A0800000000000102030406070809006CDC026C
:080A18000101FFFF3254769842
:04000005080000C52A
:00000001FF
