:020000040800F2
:1000000000200020DD010008E5010008E9010008EA
:1000100000000000000000000000000000000000E0
:1000200000000000000000000000000005020008C1
:10003000000000000000000009020008850400081C
:100040001502000815020008150200081502000834
:10005000150200080D04000815020008150200082A
:100060001502000815020008150200081502000814
:10007000150200081502000815020008C504000852
:100080001502000815020008000000001502000813
:1000900015020008150200081502000815020008E4
:1000A0001502000815020008150200085504000892
:1000B0001502000800000000150200080000000002
:1000C0005FF808F130B583B000F0C4F8314B324A24
:1000D0001360324A1360324B324A03E011681960F0
:1000E0000433043230498B42F8D32B4B1A682F4B20
:1000F0009A4204D1294B1A682D4B9A4200D0FEE750
:10010000244B2C4A13602C4A13602C4B02E0002233
:100110001A6004332A4A9342F9D3264B1B68002BFA
:1001200003D1254B1B68002B00D0FEE700F096F8AA
:10013000694601A800F086F8224C234B1C1BA41032
:10014000002504E0AA001F4BD35898470135AC4264
:10015000F8DC1E4C1E4B1C1BA410002504E0AA005A
:100160001A4BD35898470135AC42F8DC00990198F6
:1001700000F032FA0500174C174B1C1BA41004E0CA
:10018000013CA200134BD3589847002CF8DC280000
:1001900000F056F8BABADECA0000002020000020A5
:1001A000000000201C0700082400002078563412AC
:1001B00032547698240000202C00002024000020D7
:1001C0003000002040020008400200084002000801
:1001D00040020008400200084002000810B5FFF786
:1001E00071FFC04600BEFEE704207146084202D0FF
:1001F000EFF3098001E0EFF308807146044A1047ED
:1002000000BEFEE700BEFEE700BEFEE7704700004E
:080210000102000800BEFEE738
:100218001C07000800000020240000201C0700081C
:100228000000000000000000240000203000002032
:080238000000000000000000BE
:10024000FEE7C04601230360014B0B607047C046C8
:100250000400002010B500F05DF810BD10B500F0EE
:100260008BF810BD82B0002301930093264A1368D7
:10027000802149020B431360234B1A6880239B02A1
:1002800013400093019B01330193009B002B04D189
:10029000019AA023DB019A42EED11B4B1B689B0302
:1002A00002D50123009301E000230093009B012B62
:1002B00028D11122154B1A60134B5A685A605A689C
:1002C0005A605968124A0A405A605A68882149039C
:1002D0000A435A601A68802149040A431A600A4B8B
:1002E0001B689B01FBD5084B5A6803218A435A605F
:1002F000596802220A435A60034B5B680C22134080
:10030000082BF9D102B070470010024000200240D3
:10031000FF7FC0FF10B5124B1A6801210A431A6013
:100320005868104A02405A6018680F4A02401A6022
:1003300018680E4A02401A6058680D4A02405A6016
:10034000DA6A0F208243DA62186B0A4A02401A63A3
:100350005A6B8A435A6300229A60FFF783FF10BDED
:10036000001002400CB8FF08FFFFF6FEFFFFFBFF86
:10037000FFFFC0FFACFEFFFF10B51F4B5B680C22F8
:100380001340042B07D0082B09D0002B23D11B4A84
:100390001B4B1A6022E0194A194B1A601EE0164BDB
:1003A0005C685A68A40C0F2004400234C0235B022E
:1003B0001A4204D113484443114B1C600EE00E4B0B
:1003C000DB6A0F21194001310C4800F01BF944434E
:1003D0000B4B1C6002E0094A094B1A60064B5B6834
:1003E0001B090F221340084AD35CDBB2044A116890
:1003F000D940116010BDC0460010024000127A00C2
:100400001C00002000093D000C0000209023DB05AB
:100410001B8ADB070BD50B4A918A80239B000B4379
:100420009382094A13780133DBB2137004E0054A62
:10043000918A064B0B409382054A516901230B4375
:1004400053617047000800482B000020FFFDFFFFAC
:1004500000040140084A918A80235B000B43938289
:10046000064A938CDBB206490B70118B08230B43B1
:100470009BB213837047C046000800480038014013
:10048000290000200C4B1B78002B0FD00B4B1B8A34
:10049000DB050BD4094A918A80239B000B4393828E
:1004A000054A1378013BDBB2137004E0034A918ADA
:1004B000034B0B409382704729000020000800483E
:1004C000FFFDFFFF084A918A084B0B409382084AC0
:1004D000137808490B85012111708022D205138AF7
:1004E0008B4313827047C04600080048FFFEFFFFA1
:1004F0002B000020003801400C4A5369A021090359
:100500000B4353610A4B19680A4A0A401A601A6879
:10051000A021C9020A431A60998A074A0A409A82AE
:10052000998A802252000A439A8270470010024042
:1005300000080048FFFFF0FFFFFCFFFF0F4AD168F3
:100540000F4B0B40D3600F4B996801221143996008
:10055000D9681143D96019680A431A600A4B1968AF
:1005600020220A431A601A68802109020A431A608D
:100570001A68802109050A431A607047000001408B
:10058000F0FF00000004014000E100E00E4B19689C
:1005900003220A431A600D4A5A6001229A600C49EC
:1005A000CB691343CB618023DB05198A9143198200
:1005B000FA21490119850749D9629A8119881522BA
:1005C0000A4392B21A80704710E000E0808D5B0011
:1005D00000100240204E000010B50023064A1370A0
:1005E000064A1370064A1370FFF786FFFFF7A6FF4F
:1005F000FFF7CCFFFEE7C0462B0000202A000020BA
:1006000029000020002243088B4274D303098B4247
:100610005FD3030A8B4244D3030B8B4228D3030CD2
:100620008B420DD3FF22090212BA030C8B4202D374
:100630001212090265D0030B8B4219D300E0090A9C
:10064000C30B8B4201D3CB03C01A5241830B8B42A5
:1006500001D38B03C01A5241430B8B4201D34B038E
:10066000C01A5241030B8B4201D30B03C01A5241F3
:10067000C30A8B4201D3CB02C01A5241830A8B4278
:1006800001D38B02C01A5241430A8B4201D34B0261
:10069000C01A5241030A8B4201D30B02C01A5241C5
:1006A000CDD2C3098B4201D3CB01C01A5241830979
:1006B0008B4201D38B01C01A524143098B4201D3B3
:1006C0004B01C01A524103098B4201D30B01C01ADE
:1006D0005241C3088B4201D3CB00C01A5241830858
:1006E0008B4201D38B00C01A524143088B4201D385
:1006F0004B00C01A5241411A00D2014652411046E5
:100700007047FFE701B5002000F006F802BDC046C3
:0C0710000029F7D076E770477047C0461C
:10071C007856341228000020000000000000000071
:10072C00000000000102030406070809006CDC024B
:04073C003254769825
:04000005080000C52A
:00000001FF
