:020000040800F2
:1000000000200020DD010008E5010008E9010008EA
:1000100000000000000000000000000000000000E0
:1000200000000000000000000000000005020008C1
:100030000000000000000000090200080D02000896
:100040001502000815020008150200081502000834
:100050001502000815020008150200081502000824
:100060001502000815020008150200081502000814
:100070001502000815020008150200080D0400080A
:100080001502000815020008000000001502000813
:1000900015020008150200081502000815020008E4
:1000A00015020008150200081502000815020008D4
:1000B0001502000800000000150200080000000002
:1000C0005FF808F130B583B000F0C4F8314B324A24
:1000D0001360324A1360324B324A03E011681960F0
:1000E0000433043230498B42F8D32B4B1A682F4B20
:1000F0009A4204D1294B1A682D4B9A4200D0FEE750
:10010000244B2C4A13602C4A13602C4B02E0002233
:100110001A6004332A4A9342F9D3264B1B68002BFA
:1001200003D1254B1B68002B00D0FEE700F096F8AA
:10013000694601A800F086F8224C234B1C1BA41032
:10014000002504E0AA001F4BD35898470135AC4264
:10015000F8DC1E4C1E4B1C1BA410002504E0AA005A
:100160001A4BD35898470135AC42F8DC00990198F6
:1001700000F038FA0500174C174B1C1BA41004E0C4
:10018000013CA200134BD3589847002CF8DC280000
:1001900000F056F8BABADECA0000002020000020A5
:1001A0000000002078070008240000207856341250
:1001B00032547698240000203800002024000020CB
:1001C0003C000020400200084002000840020008F5
:1001D00040020008400200084002000810B5FFF786
:1001E00071FFC04600BEFEE704207146084202D0FF
:1001F000EFF3098001E0EFF308807146044A1047ED
:1002000000BEFEE700BEFEE700BEFEE7704700004E
:080210000102000800BEFEE738
:100218007807000800000020240000207807000864
:100228000000000000000000240000203C00002026
:080238000000000000000000BE
:10024000FEE7C04601230360014B0B607047C046C8
:100250000400002010B500F05DF810BD10B500F0EE
:100260008BF810BD82B0002301930093264A1368D7
:10027000802149020B431360234B1A6880239B02A1
:1002800013400093019B01330193009B002B04D189
:10029000019AA023DB019A42EED11B4B1B689B0302
:1002A00002D50123009301E000230093009B012B62
:1002B00028D11122154B1A60134B5A685A605A689C
:1002C0005A605968124A0A405A605A68882149039C
:1002D0000A435A601A68802149040A431A600A4B8B
:1002E0001B689B01FBD5084B5A6803218A435A605F
:1002F000596802220A435A60034B5B680C22134080
:10030000082BF9D102B070470010024000200240D3
:10031000FF7FC0FF10B5124B1A6801210A431A6013
:100320005868104A02405A6018680F4A02401A6022
:1003300018680E4A02401A6058680D4A02405A6016
:10034000DA6A0F208243DA62186B0A4A02401A63A3
:100350005A6B8A435A6300229A60FFF783FF10BDED
:10036000001002400CB8FF08FFFFF6FEFFFFFBFF86
:10037000FFFFC0FFACFEFFFF10B51F4B5B680C22F8
:100380001340042B07D0082B09D0002B23D11B4A84
:100390001B4B1A6022E0194A194B1A601EE0164BDB
:1003A0005C685A68A40C0F2004400234C0235B022E
:1003B0001A4204D113484443114B1C600EE00E4B0B
:1003C000DB6A0F21194001310C4800F039F9444330
:1003D0000B4B1C6002E0094A094B1A60064B5B6834
:1003E0001B090F221340084AD35CDBB2044A116890
:1003F000D940116010BDC0460010024000127A00C2
:100400001C00002000093D000C0000200E4A918ACB
:1004100080239B004B4093820C4B1A680C49895CEB
:100420000C4A11611B681F2B03D10022074B1A6075
:1004300003E0064A1368013313608022D205138A51
:1004400001218B4313827047000800482C000020D4
:100450005807000800740040164A5369A021090398
:100460000B435361144B1968144A0A401A601A6806
:100470008021C9020A431A60998A114A0A409A8265
:100480001968104A0A401A601A68802189020A43D2
:100490001A605A6A0F218A435A629023DB05196851
:1004A0000C220A431A601A68C02189000A431A60A4
:1004B0007047C0460010024000080048FFFFF7FFE9
:1004C000FFFDFFFFFFFFFEFF0C4AD3698021890576
:1004D0000B43D3610A4B19680A4A0A401A601A682A
:1004E000E021C9000A431A601A6804218A431A608D
:1004F000196801220A431A607047C0460010024082
:1005000000740040FFF0FFFF1C4A936980218900BE
:100510000B4393611A4BDA68F939FF398A43DA6081
:10052000D96810220A43DA60DA68802189010A4317
:10053000DA601A69920092081A61996A02220A43E3
:100540009A629A6801218A439A609A688021090612
:100550000A439A600A4B9B68002BFBDB084A9168B0
:1005600001230B439360064B1B68DB07FBD5044A52
:10057000916804230B4393607047C046001002400B
:1005800000240140154AD16902230B43D361144B67
:100590002F221A8580214900D9620022DA639A8BC2
:1005A000032082439A839A8B0D3082439A83988BDF
:1005B0006022024392B29A83988B0822024392B23D
:1005C0009A831A8C1143198419880122114389B224
:1005D0001980998A0A4392B29A82704700100240A9
:1005E0000004004010B5104A104B1A600022104B56
:1005F0001A60FFF731FFFFF7C5FFFFF785FFFFF731
:1006000063FF0C4B196C0C4AD1631B6C9A00D31816
:100610009A000A4B1A601A68044B1B6853435B0923
:100620008022D205D362ECE700093D0030000020B3
:100630002C00002000240140000400403400002071
:10064000002243088B4274D303098B425FD3030A11
:100650008B4244D3030B8B4228D3030C8B420DD324
:10066000FF22090212BA030C8B4202D312120902B2
:1006700065D0030B8B4219D300E0090AC30B8B42F0
:1006800001D3CB03C01A5241830B8B4201D38B039E
:10069000C01A5241430B8B4201D34B03C01A524143
:1006A000030B8B4201D30B03C01A5241C30A8B4286
:1006B00001D3CB02C01A5241830A8B4201D38B0271
:1006C000C01A5241430A8B4201D34B02C01A524115
:1006D000030A8B4201D30B02C01A5241CDD2C30987
:1006E0008B4201D3CB01C01A524183098B4201D303
:1006F0008B01C01A524143098B4201D34B01C01AEE
:10070000524103098B4201D30B01C01A5241C30865
:100710008B4201D3CB00C01A524183088B4201D3D4
:100720008B00C01A524143088B4201D34B00C01AC0
:100730005241411A00D20146524110467047FFE72C
:1007400001B5002000F006F802BDC0460029F7D030
:1007500076E770477047C0467F97AFC5D8E8F4FB8F
:10076000FEFBF4E8D8C5AF977F664E382515090221
:080770000002091525384E6650
:100778007856341228000020000000000000000015
:10078800000000000102030406070809006CDC02EF
:0407980032547698C9
:04000005080000C52A
:00000001FF
