:020000040800F2
:1000000000200020DD010008E5010008E9010008EA
:1000100000000000000000000000000000000000E0
:1000200000000000000000000000000005020008C1
:100030000000000000000000090200080D02000896
:100040001502000815020008150200081502000834
:100050001502000815020008150200081502000824
:100060001502000815020008150200081502000814
:10007000150200081502000815020008CD0400084A
:100080001502000815020008000000001502000813
:1000900015020008150200081502000815020008E4
:1000A00015020008150200081502000815020008D4
:1000B0001502000800000000150200080000000002
:1000C0005FF808F130B583B000F0C4F8314B324A24
:1000D0001360324A1360324B324A03E011681960F0
:1000E0000433043230498B42F8D32B4B1A682F4B20
:1000F0009A4204D1294B1A682D4B9A4200D0FEE750
:10010000244B2C4A13602C4A13602C4B02E0002233
:100110001A6004332A4A9342F9D3264B1B68002BFA
:1001200003D1254B1B68002B00D0FEE700F096F8AA
:10013000694601A800F086F8224C234B1C1BA41032
:10014000002504E0AA001F4BD35898470135AC4264
:10015000F8DC1E4C1E4B1C1BA410002504E0AA005A
:100160001A4BD35898470135AC42F8DC00990198F6
:1001700000F0F8F90500174C174B1C1BA41004E005
:10018000013CA200134BD3589847002CF8DC280000
:1001900000F056F8BABADECA0000002020000020A5
:1001A00000000020AC06000824000020785634121D
:1001B00032547698240000203000002024000020D3
:1001C00034000020400200084002000840020008FD
:1001D00040020008400200084002000810B5FFF786
:1001E00071FFC04600BEFEE704207146084202D0FF
:1001F000EFF3098001E0EFF308807146044A1047ED
:1002000000BEFEE700BEFEE700BEFEE7704700004E
:080210000102000800BEFEE738
:10021800AC0600080000002024000020AC060008FE
:10022800000000000000000024000020340000202E
:080238000000000000000000BE
:10024000FEE7C04601230360014B0B607047C046C8
:100250000400002010B500F05DF810BD10B500F0EE
:100260008BF810BD82B0002301930093264A1368D7
:10027000802149020B431360234B1A6880239B02A1
:1002800013400093019B01330193009B002B04D189
:10029000019AA023DB019A42EED11B4B1B689B0302
:1002A00002D50123009301E000230093009B012B62
:1002B00028D11122154B1A60134B5A685A605A689C
:1002C0005A605968124A0A405A605A68882149039C
:1002D0000A435A601A68802149040A431A600A4B8B
:1002E0001B689B01FBD5084B5A6803218A435A605F
:1002F000596802220A435A60034B5B680C22134080
:10030000082BF9D102B070470010024000200240D3
:10031000FF7FC0FF10B5124B1A6801210A431A6013
:100320005868104A02405A6018680F4A02401A6022
:1003300018680E4A02401A6058680D4A02405A6016
:10034000DA6A0F208243DA62186B0A4A02401A63A3
:100350005A6B8A435A6300229A60FFF783FF10BDED
:10036000001002400CB8FF08FFFFF6FEFFFFFBFF86
:10037000FFFFC0FFACFEFFFF10B51F4B5B680C22F8
:100380001340042B07D0082B09D0002B23D11B4A84
:100390001B4B1A6022E0194A194B1A601EE0164BDB
:1003A0005C685A68A40C0F2004400234C0235B022E
:1003B0001A4204D113484443114B1C600EE00E4B0B
:1003C000DB6A0F21194001310C4800F0E3F8444387
:1003D0000B4B1C6002E0094A094B1A60064B5B6834
:1003E0001B090F221340084AD35CDBB2044A116890
:1003F000D940116010BDC0460010024000127A00C2
:100400001C00002000093D000C0000200D4A53692B
:10041000802109030B4353610B4B1A688021C902E9
:100420000A431A609988094A1140998098680849D6
:1004300008409860D8680140D960998A0A409A8239
:100440007047C0460010024000080048FFFDFFFF53
:10045000FFFFF3FF084A5369802109030B435361EF
:10046000064B1A68802189020A431A605A6A0F21D2
:100470008A435A627047C046001002400008004894
:100480000F49CB6901221343CB618023DB055A62FC
:100490000C4ADA622F221A851A8802218A431A80AE
:1004A00099890122114389B2998119880A4392B22C
:1004B0001A80054A1368802109020B4313607047B4
:1004C0000010024020A1070000E100E0064A918AE6
:1004D00080239B004B4093828022D205138A012106
:1004E0008B4313827047C04600080048194AD169FF
:1004F00002230B43D361184B2F221A85FA22920054
:10050000DA62164ADA639A8B03218A439A839A8BBA
:100510000D318A439A83998B60220A4392B29A835F
:10052000998B08220A4392B29A83198C8022520036
:100530000A431A844421585A094A024392B25A5231
:1005400019880122114389B21980998A0A4392B20B
:100550009A8270470010024000040040A60200008A
:100560000080FFFF10B5FFF78BFFFFF74FFF074A33
:10057000918A80235B000B4393821922044B1A60FB
:10058000FFF768FFFFF7B2FFFEE7C046000800482C
:100590002C000020002243088B4274D303098B42B5
:1005A0005FD3030A8B4244D3030B8B4228D3030C43
:1005B0008B420DD3FF22090212BA030C8B4202D3E5
:1005C0001212090265D0030B8B4219D300E0090A0D
:1005D000C30B8B4201D3CB03C01A5241830B8B4216
:1005E00001D38B03C01A5241430B8B4201D34B03FF
:1005F000C01A5241030B8B4201D30B03C01A524164
:10060000C30A8B4201D3CB02C01A5241830A8B42E8
:1006100001D38B02C01A5241430A8B4201D34B02D1
:10062000C01A5241030A8B4201D30B02C01A524135
:10063000CDD2C3098B4201D3CB01C01A52418309E9
:100640008B4201D38B01C01A524143098B4201D323
:100650004B01C01A524103098B4201D30B01C01A4E
:100660005241C3088B4201D3CB00C01A52418308C8
:100670008B4201D38B00C01A524143088B4201D3F5
:100680004B00C01A5241411A00D201465241104655
:100690007047FFE701B5002000F006F802BDC04634
:0C06A0000029F7D076E770477047C0468D
:1006AC0078563412280000200000000000000000E2
:1006BC00000000000102030406070809006CDC02BC
:0406CC003254769896
:04000005080000C52A
:00000001FF
